{
  "contractName": "LowbOracle",
  "abi": [
    {
      "inputs": [
        {
          "internalType": "address",
          "name": "_lowbTokenAddress",
          "type": "address"
        }
      ],
      "stateMutability": "nonpayable",
      "type": "constructor"
    },
    {
      "anonymous": false,
      "inputs": [
        {
          "indexed": false,
          "internalType": "uint256",
          "name": "amount",
          "type": "uint256"
        },
        {
          "indexed": true,
          "internalType": "address",
          "name": "to",
          "type": "address"
        },
        {
          "indexed": true,
          "internalType": "uint256",
          "name": "id",
          "type": "uint256"
        }
      ],
      "name": "DepositForEvent",
      "type": "event"
    },
    {
      "anonymous": false,
      "inputs": [
        {
          "indexed": true,
          "internalType": "address",
          "name": "previousOwner",
          "type": "address"
        },
        {
          "indexed": true,
          "internalType": "address",
          "name": "newOwner",
          "type": "address"
        }
      ],
      "name": "OwnershipTransferred",
      "type": "event"
    },
    {
      "anonymous": false,
      "inputs": [
        {
          "indexed": false,
          "internalType": "uint256",
          "name": "amount",
          "type": "uint256"
        },
        {
          "indexed": true,
          "internalType": "address",
          "name": "to",
          "type": "address"
        },
        {
          "indexed": true,
          "internalType": "uint256",
          "name": "id",
          "type": "uint256"
        }
      ],
      "name": "WithdrawToEvent",
      "type": "event"
    },
    {
      "stateMutability": "payable",
      "type": "fallback",
      "payable": true
    },
    {
      "inputs": [],
      "name": "depositAmount",
      "outputs": [
        {
          "internalType": "uint256",
          "name": "",
          "type": "uint256"
        }
      ],
      "stateMutability": "view",
      "type": "function",
      "constant": true
    },
    {
      "inputs": [],
      "name": "depositId",
      "outputs": [
        {
          "internalType": "uint256",
          "name": "",
          "type": "uint256"
        }
      ],
      "stateMutability": "view",
      "type": "function",
      "constant": true
    },
    {
      "inputs": [],
      "name": "fees",
      "outputs": [
        {
          "internalType": "uint256",
          "name": "",
          "type": "uint256"
        }
      ],
      "stateMutability": "view",
      "type": "function",
      "constant": true
    },
    {
      "inputs": [],
      "name": "feesToWithdraw",
      "outputs": [
        {
          "internalType": "uint256",
          "name": "",
          "type": "uint256"
        }
      ],
      "stateMutability": "view",
      "type": "function",
      "constant": true
    },
    {
      "inputs": [
        {
          "internalType": "address",
          "name": "",
          "type": "address"
        }
      ],
      "name": "latestTransaction",
      "outputs": [
        {
          "internalType": "uint256",
          "name": "",
          "type": "uint256"
        }
      ],
      "stateMutability": "view",
      "type": "function",
      "constant": true
    },
    {
      "inputs": [],
      "name": "lowbTokenAddress",
      "outputs": [
        {
          "internalType": "address",
          "name": "",
          "type": "address"
        }
      ],
      "stateMutability": "view",
      "type": "function",
      "constant": true
    },
    {
      "inputs": [],
      "name": "owner",
      "outputs": [
        {
          "internalType": "address",
          "name": "",
          "type": "address"
        }
      ],
      "stateMutability": "view",
      "type": "function",
      "constant": true
    },
    {
      "inputs": [],
      "name": "renounceOwnership",
      "outputs": [],
      "stateMutability": "nonpayable",
      "type": "function"
    },
    {
      "inputs": [],
      "name": "rewards",
      "outputs": [
        {
          "internalType": "uint256",
          "name": "",
          "type": "uint256"
        }
      ],
      "stateMutability": "view",
      "type": "function",
      "constant": true
    },
    {
      "inputs": [
        {
          "internalType": "uint256",
          "name": "",
          "type": "uint256"
        }
      ],
      "name": "transactionBlocks",
      "outputs": [
        {
          "internalType": "uint256",
          "name": "",
          "type": "uint256"
        }
      ],
      "stateMutability": "view",
      "type": "function",
      "constant": true
    },
    {
      "inputs": [
        {
          "internalType": "address",
          "name": "newOwner",
          "type": "address"
        }
      ],
      "name": "transferOwnership",
      "outputs": [],
      "stateMutability": "nonpayable",
      "type": "function"
    },
    {
      "inputs": [],
      "name": "withdrawAmount",
      "outputs": [
        {
          "internalType": "uint256",
          "name": "",
          "type": "uint256"
        }
      ],
      "stateMutability": "view",
      "type": "function",
      "constant": true
    },
    {
      "inputs": [],
      "name": "withdrawId",
      "outputs": [
        {
          "internalType": "uint256",
          "name": "",
          "type": "uint256"
        }
      ],
      "stateMutability": "view",
      "type": "function",
      "constant": true
    },
    {
      "stateMutability": "payable",
      "type": "receive",
      "payable": true
    },
    {
      "inputs": [
        {
          "internalType": "uint256",
          "name": "_amount",
          "type": "uint256"
        },
        {
          "internalType": "address",
          "name": "_for",
          "type": "address"
        }
      ],
      "name": "depositFor",
      "outputs": [
        {
          "internalType": "uint256",
          "name": "",
          "type": "uint256"
        }
      ],
      "stateMutability": "nonpayable",
      "type": "function"
    },
    {
      "inputs": [
        {
          "internalType": "uint256",
          "name": "_amount",
          "type": "uint256"
        },
        {
          "internalType": "address payable",
          "name": "_to",
          "type": "address"
        },
        {
          "internalType": "uint256",
          "name": "_id",
          "type": "uint256"
        }
      ],
      "name": "withdrawTo",
      "outputs": [],
      "stateMutability": "nonpayable",
      "type": "function"
    },
    {
      "inputs": [
        {
          "internalType": "uint256",
          "name": "_fees",
          "type": "uint256"
        },
        {
          "internalType": "uint256",
          "name": "_rewards",
          "type": "uint256"
        }
      ],
      "name": "setFeesAndRewards",
      "outputs": [],
      "stateMutability": "nonpayable",
      "type": "function"
    },
    {
      "inputs": [
        {
          "internalType": "address",
          "name": "_tokenAddress",
          "type": "address"
        },
        {
          "internalType": "address payable",
          "name": "_to",
          "type": "address"
        }
      ],
      "name": "pullFunds",
      "outputs": [],
      "stateMutability": "nonpayable",
      "type": "function"
    }
  ],
  "bytecode": "0x60806040523480156200001157600080fd5b506040516200197938038062001979833981810160405281019062000037919062000182565b620000576200004b6200009f60201b60201c565b620000a760201b60201c565b80600860006101000a81548173ffffffffffffffffffffffffffffffffffffffff021916908373ffffffffffffffffffffffffffffffffffffffff16021790555050620001fc565b600033905090565b60008060009054906101000a900473ffffffffffffffffffffffffffffffffffffffff169050816000806101000a81548173ffffffffffffffffffffffffffffffffffffffff021916908373ffffffffffffffffffffffffffffffffffffffff1602179055508173ffffffffffffffffffffffffffffffffffffffff168173ffffffffffffffffffffffffffffffffffffffff167f8be0079c531659141344cd1fd0a4f28419497f9722a3daafe3b4186f6b6457e060405160405180910390a35050565b6000815190506200017c81620001e2565b92915050565b6000602082840312156200019557600080fd5b6000620001a5848285016200016b565b91505092915050565b6000620001bb82620001c2565b9050919050565b600073ffffffffffffffffffffffffffffffffffffffff82169050919050565b620001ed81620001ae565b8114620001f957600080fd5b50565b61176d806200020c6000396000f3fe6080604052600436106101025760003560e01c806369adffec116100955780639852099c116100645780639852099c1461032d5780639af1d35a146103585780639ec5a89414610383578063caa7262b146103ae578063f2fde38b146103d757610109565b806369adffec14610271578063715018a6146102ae57806385877fc6146102c55780638da5cb5b1461030257610109565b8063419759f5116100d1578063419759f5146101c5578063449757e9146101f0578063534844a21461021b57806368249dcb1461024657610109565b8063213eed921461010b578063293217c91461013457806336d43c241461015d57806336efd16f1461018857610109565b3661010957005b005b34801561011757600080fd5b50610132600480360381019061012d9190611045565b610400565b005b34801561014057600080fd5b5061015b60048036038101906101569190611187565b610718565b005b34801561016957600080fd5b506101726107a6565b60405161017f919061151d565b60405180910390f35b34801561019457600080fd5b506101af60048036038101906101aa91906110fc565b6107ac565b6040516101bc919061151d565b60405180910390f35b3480156101d157600080fd5b506101da6109f0565b6040516101e7919061151d565b60405180910390f35b3480156101fc57600080fd5b506102056109f6565b604051610212919061151d565b60405180910390f35b34801561022757600080fd5b506102306109fc565b60405161023d919061151d565b60405180910390f35b34801561025257600080fd5b5061025b610a02565b60405161026891906113e2565b60405180910390f35b34801561027d57600080fd5b50610298600480360381019061029391906110aa565b610a28565b6040516102a5919061151d565b60405180910390f35b3480156102ba57600080fd5b506102c3610a40565b005b3480156102d157600080fd5b506102ec60048036038101906102e7919061101c565b610ac8565b6040516102f9919061151d565b60405180910390f35b34801561030e57600080fd5b50610317610ae0565b60405161032491906113e2565b60405180910390f35b34801561033957600080fd5b50610342610b09565b60405161034f919061151d565b60405180910390f35b34801561036457600080fd5b5061036d610b0f565b60405161037a919061151d565b60405180910390f35b34801561038f57600080fd5b50610398610b15565b6040516103a5919061151d565b60405180910390f35b3480156103ba57600080fd5b506103d560048036038101906103d09190611138565b610b1b565b005b3480156103e357600080fd5b506103fe60048036038101906103f9919061101c565b610def565b005b610408610ee7565b73ffffffffffffffffffffffffffffffffffffffff16610426610ae0565b73ffffffffffffffffffffffffffffffffffffffff161461047c576040517f08c379a0000000000000000000000000000000000000000000000000000000008152600401610473906114bd565b60405180910390fd5b600073ffffffffffffffffffffffffffffffffffffffff168273ffffffffffffffffffffffffffffffffffffffff1614156104fd578073ffffffffffffffffffffffffffffffffffffffff166108fc479081150290604051600060405180830381858888f193505050501580156104f7573d6000803e3d6000fd5b50610714565b600860009054906101000a900473ffffffffffffffffffffffffffffffffffffffff1673ffffffffffffffffffffffffffffffffffffffff168273ffffffffffffffffffffffffffffffffffffffff1614156105f65760008290508073ffffffffffffffffffffffffffffffffffffffff1663a9059cbb836005546040518363ffffffff1660e01b81526004016105959291906113fd565b602060405180830381600087803b1580156105af57600080fd5b505af11580156105c3573d6000803e3d6000fd5b505050506040513d601f19601f820116820180604052508101906105e79190611081565b50600060058190555050610713565b60008290508073ffffffffffffffffffffffffffffffffffffffff1663a9059cbb838373ffffffffffffffffffffffffffffffffffffffff166370a08231306040518263ffffffff1660e01b815260040161065191906113e2565b60206040518083038186803b15801561066957600080fd5b505afa15801561067d573d6000803e3d6000fd5b505050506040513d601f19601f820116820180604052508101906106a191906110d3565b6040518363ffffffff1660e01b81526004016106be9291906113fd565b602060405180830381600087803b1580156106d857600080fd5b505af11580156106ec573d6000803e3d6000fd5b505050506040513d601f19601f820116820180604052508101906107109190611081565b50505b5b5050565b610720610ee7565b73ffffffffffffffffffffffffffffffffffffffff1661073e610ae0565b73ffffffffffffffffffffffffffffffffffffffff1614610794576040517f08c379a000000000000000000000000000000000000000000000000000000000815260040161078b906114bd565b60405180910390fd5b81600681905550806007819055505050565b60025481565b6000600160008154809291906107c190611663565b9190505550600654831161080a576040517f08c379a0000000000000000000000000000000000000000000000000000000008152600401610801906114dd565b60405180910390fd5b6000600860009054906101000a900473ffffffffffffffffffffffffffffffffffffffff1690508073ffffffffffffffffffffffffffffffffffffffff166323b872dd3330876040518463ffffffff1660e01b815260040161086e93929190611426565b602060405180830381600087803b15801561088857600080fd5b505af115801561089c573d6000803e3d6000fd5b505050506040513d601f19601f820116820180604052508101906108c09190611081565b6108ff576040517f08c379a00000000000000000000000000000000000000000000000000000000081526004016108f69061149d565b60405180910390fd5b600154600a60003373ffffffffffffffffffffffffffffffffffffffff1673ffffffffffffffffffffffffffffffffffffffff1681526020019081526020016000208190555060065484610953919061159f565b600360008282546109649190611549565b925050819055506006546005600082825461097f9190611549565b925050819055506001548373ffffffffffffffffffffffffffffffffffffffff167ffee46db5732247de632ce31f76565e75c254362d1b139866819d49a8c0d85ae1600654876109cf919061159f565b6040516109dc919061151d565b60405180910390a360015491505092915050565b60035481565b60055481565b60045481565b600860009054906101000a900473ffffffffffffffffffffffffffffffffffffffff1681565b60096020528060005260406000206000915090505481565b610a48610ee7565b73ffffffffffffffffffffffffffffffffffffffff16610a66610ae0565b73ffffffffffffffffffffffffffffffffffffffff1614610abc576040517f08c379a0000000000000000000000000000000000000000000000000000000008152600401610ab3906114bd565b60405180910390fd5b610ac66000610eef565b565b600a6020528060005260406000206000915090505481565b60008060009054906101000a900473ffffffffffffffffffffffffffffffffffffffff16905090565b60015481565b60065481565b60075481565b610b23610ee7565b73ffffffffffffffffffffffffffffffffffffffff16610b41610ae0565b73ffffffffffffffffffffffffffffffffffffffff1614610b97576040517f08c379a0000000000000000000000000000000000000000000000000000000008152600401610b8e906114bd565b60405180910390fd5b6000600960008381526020019081526020016000205414610bed576040517f08c379a0000000000000000000000000000000000000000000000000000000008152600401610be49061147d565b60405180910390fd5b6000600860009054906101000a900473ffffffffffffffffffffffffffffffffffffffff1690508073ffffffffffffffffffffffffffffffffffffffff1663a9059cbb84866040518363ffffffff1660e01b8152600401610c4f9291906113fd565b602060405180830381600087803b158015610c6957600080fd5b505af1158015610c7d573d6000803e3d6000fd5b505050506040513d601f19601f82011682018060405250810190610ca19190611081565b610ce0576040517f08c379a0000000000000000000000000000000000000000000000000000000008152600401610cd79061149d565b60405180910390fd5b60006007541115610d62578273ffffffffffffffffffffffffffffffffffffffff166108fc6007549081150290604051600060405180830381858888f19350505050610d61576040517f08c379a0000000000000000000000000000000000000000000000000000000008152600401610d58906114fd565b60405180910390fd5b5b436009600084815260200190815260200160002081905550816002819055508360046000828254610d939190611549565b92505081905550818373ffffffffffffffffffffffffffffffffffffffff167f9d9b80b7d6d8726032b314061d0ebe36168d57d395069aed82f7b613e074d22686604051610de1919061151d565b60405180910390a350505050565b610df7610ee7565b73ffffffffffffffffffffffffffffffffffffffff16610e15610ae0565b73ffffffffffffffffffffffffffffffffffffffff1614610e6b576040517f08c379a0000000000000000000000000000000000000000000000000000000008152600401610e62906114bd565b60405180910390fd5b600073ffffffffffffffffffffffffffffffffffffffff168173ffffffffffffffffffffffffffffffffffffffff161415610edb576040517f08c379a0000000000000000000000000000000000000000000000000000000008152600401610ed29061145d565b60405180910390fd5b610ee481610eef565b50565b600033905090565b60008060009054906101000a900473ffffffffffffffffffffffffffffffffffffffff169050816000806101000a81548173ffffffffffffffffffffffffffffffffffffffff021916908373ffffffffffffffffffffffffffffffffffffffff1602179055508173ffffffffffffffffffffffffffffffffffffffff168173ffffffffffffffffffffffffffffffffffffffff167f8be0079c531659141344cd1fd0a4f28419497f9722a3daafe3b4186f6b6457e060405160405180910390a35050565b600081359050610fc2816116db565b92915050565b600081359050610fd7816116f2565b92915050565b600081519050610fec81611709565b92915050565b60008135905061100181611720565b92915050565b60008151905061101681611720565b92915050565b60006020828403121561102e57600080fd5b600061103c84828501610fb3565b91505092915050565b6000806040838503121561105857600080fd5b600061106685828601610fb3565b925050602061107785828601610fc8565b9150509250929050565b60006020828403121561109357600080fd5b60006110a184828501610fdd565b91505092915050565b6000602082840312156110bc57600080fd5b60006110ca84828501610ff2565b91505092915050565b6000602082840312156110e557600080fd5b60006110f384828501611007565b91505092915050565b6000806040838503121561110f57600080fd5b600061111d85828601610ff2565b925050602061112e85828601610fb3565b9150509250929050565b60008060006060848603121561114d57600080fd5b600061115b86828701610ff2565b935050602061116c86828701610fc8565b925050604061117d86828701610ff2565b9150509250925092565b6000806040838503121561119a57600080fd5b60006111a885828601610ff2565b92505060206111b985828601610ff2565b9150509250929050565b6111cc8161162d565b82525050565b6111db816115d3565b82525050565b60006111ee602683611538565b91507f4f776e61626c653a206e6577206f776e657220697320746865207a65726f206160008301527f64647265737300000000000000000000000000000000000000000000000000006020830152604082019050919050565b6000611254602483611538565b91507f54686973207472616e73616374696f6e20686173206265656e2070726f63657360008301527f7365642e000000000000000000000000000000000000000000000000000000006020830152604082019050919050565b60006112ba601483611538565b91507f4c6f7762207472616e73666572206661696c65640000000000000000000000006000830152602082019050919050565b60006112fa602083611538565b91507f4f776e61626c653a2063616c6c6572206973206e6f7420746865206f776e65726000830152602082019050919050565b600061133a602583611538565b91507f6465706f73697420616d6f756e742073686f756c6420636f766572207468652060008301527f666565732e0000000000000000000000000000000000000000000000000000006020830152604082019050919050565b60006113a0601c83611538565b91507f72657761726420746f6b656e207472616e73666572206661696c6564000000006000830152602082019050919050565b6113dc81611623565b82525050565b60006020820190506113f760008301846111d2565b92915050565b600060408201905061141260008301856111c3565b61141f60208301846113d3565b9392505050565b600060608201905061143b60008301866111d2565b61144860208301856111d2565b61145560408301846113d3565b949350505050565b60006020820190508181036000830152611476816111e1565b9050919050565b6000602082019050818103600083015261149681611247565b9050919050565b600060208201905081810360008301526114b6816112ad565b9050919050565b600060208201905081810360008301526114d6816112ed565b9050919050565b600060208201905081810360008301526114f68161132d565b9050919050565b6000602082019050818103600083015261151681611393565b9050919050565b600060208201905061153260008301846113d3565b92915050565b600082825260208201905092915050565b600061155482611623565b915061155f83611623565b9250827fffffffffffffffffffffffffffffffffffffffffffffffffffffffffffffffff03821115611594576115936116ac565b5b828201905092915050565b60006115aa82611623565b91506115b583611623565b9250828210156115c8576115c76116ac565b5b828203905092915050565b60006115de82611603565b9050919050565b60006115f082611603565b9050919050565b60008115159050919050565b600073ffffffffffffffffffffffffffffffffffffffff82169050919050565b6000819050919050565b60006116388261163f565b9050919050565b600061164a82611651565b9050919050565b600061165c82611603565b9050919050565b600061166e82611623565b91507fffffffffffffffffffffffffffffffffffffffffffffffffffffffffffffffff8214156116a1576116a06116ac565b5b600182019050919050565b7f4e487b7100000000000000000000000000000000000000000000000000000000600052601160045260246000fd5b6116e4816115d3565b81146116ef57600080fd5b50565b6116fb816115e5565b811461170657600080fd5b50565b611712816115f7565b811461171d57600080fd5b50565b61172981611623565b811461173457600080fd5b5056fea264697066735822122056a54e5d1ebf53584b4491c43566c3b4f917ab1576017e1ba8097bbb0b9316ab64736f6c63430008000033",
  "immutableReferences": {},
  "source": "// contracts/LowbOracle.sol\r\n// SPDX-License-Identifier: MIT\r\npragma solidity ^0.8.0;\r\nimport \"@openzeppelin/contracts/access/Ownable.sol\";\r\nimport \"@openzeppelin/contracts/token/ERC20/IERC20.sol\";\r\n\r\ncontract LowbOracle is Ownable {\r\n  uint256 public depositId;\r\n  uint256 public withdrawId;\r\n  uint256 public depositAmount;\r\n  uint256 public withdrawAmount;\r\n  uint256 public feesToWithdraw;\r\n  uint256 public fees;\r\n  uint256 public rewards;\r\n  address public lowbTokenAddress;\r\n  mapping(uint256=>uint256) public transactionBlocks;\r\n  mapping(address=>uint256) public latestTransaction;\r\n  event DepositForEvent(uint256 amount, address indexed to, uint indexed id);\r\n  event WithdrawToEvent(uint256 amount, address indexed to, uint indexed id);\r\n\r\n  constructor(address _lowbTokenAddress) {\r\n    lowbTokenAddress = _lowbTokenAddress;\r\n  }\r\n\r\n  // Function to receive Ether. msg.data must be empty\r\n  receive() external payable {}\r\n\r\n  // Fallback function is called when msg.data is not empty\r\n  fallback() external payable {}\r\n\r\n  function depositFor(uint256 _amount, address _for) public returns (uint256) {\r\n    depositId++;\r\n    require(_amount > fees, \"deposit amount should cover the fees.\");\r\n    IERC20 token = IERC20(lowbTokenAddress);\r\n    require(token.transferFrom(msg.sender, address(this), _amount), \"Lowb transfer failed\");\r\n    latestTransaction[msg.sender] = depositId;\r\n    depositAmount += (_amount-fees);\r\n    feesToWithdraw += fees;\r\n    emit DepositForEvent(_amount-fees, _for, depositId);\r\n    return depositId;\r\n  }\r\n\r\n  function withdrawTo(uint256 _amount, address payable _to, uint256 _id) public onlyOwner {\r\n    require(transactionBlocks[_id] == 0, \"This transaction has been processed.\");\r\n    IERC20 token = IERC20(lowbTokenAddress);\r\n    require(token.transfer(_to, _amount), \"Lowb transfer failed\");\r\n    if (rewards > 0) {\r\n      require(_to.send(rewards), \"reward token transfer failed\");\r\n    }\r\n    transactionBlocks[_id] = block.number;\r\n    withdrawId = _id;\r\n    withdrawAmount += _amount;\r\n    emit WithdrawToEvent(_amount, _to, _id);\r\n  }\r\n\r\n  function setFeesAndRewards(uint256 _fees, uint256 _rewards) public onlyOwner {\r\n    fees = _fees;\r\n    rewards = _rewards;\r\n  }\r\n\r\n  function pullFunds(address _tokenAddress, address payable _to) public onlyOwner {\r\n    if (_tokenAddress == address(0)) {\r\n      _to.transfer(address(this).balance);\r\n    }\r\n    else if (_tokenAddress == lowbTokenAddress) {\r\n      IERC20 token = IERC20(_tokenAddress);\r\n      token.transfer(_to, feesToWithdraw);\r\n      feesToWithdraw = 0;\r\n    } \r\n    else {\r\n      IERC20 token = IERC20(_tokenAddress);\r\n      token.transfer(_to, token.balanceOf(address(this)));\r\n    }\r\n  }\r\n}\r\n",
  "sourcePath": "C:/Users/Weixuan/Documents/github/LowbOracle/contracts/LowbOracle.sol",
  "compiler": {
    "name": "solc",
    "version": "0.8.0+commit.c7dfd78e.Emscripten.clang"
  },
  "schemaVersion": "3.4.0",
  "updatedAt": "2021-07-07T14:29:32.055Z",
  "networkType": "ethereum",
  "devdoc": {
    "kind": "dev",
    "methods": {
      "owner()": {
        "details": "Returns the address of the current owner."
      },
      "renounceOwnership()": {
        "details": "Leaves the contract without owner. It will not be possible to call `onlyOwner` functions anymore. Can only be called by the current owner. NOTE: Renouncing ownership will leave the contract without an owner, thereby removing any functionality that is only available to the owner."
      },
      "transferOwnership(address)": {
        "details": "Transfers ownership of the contract to a new account (`newOwner`). Can only be called by the current owner."
      }
    },
    "version": 1
  },
  "userdoc": {
    "kind": "user",
    "methods": {},
    "version": 1
  }
}